{
  "_format": "hh-sol-artifact-1",
  "contractName": "ProducerRegistry",
  "sourceName": "contracts/ProducerRegistery.sol",
  "abi": [
    {
      "anonymous": false,
      "inputs": [
        {
          "indexed": true,
          "internalType": "address",
          "name": "producerAddress",
          "type": "address"
        },
        {
          "indexed": false,
          "internalType": "string",
          "name": "name",
          "type": "string"
        },
        {
          "indexed": false,
          "internalType": "string",
          "name": "location",
          "type": "string"
        },
        {
          "indexed": false,
          "internalType": "string",
          "name": "h3Index",
          "type": "string"
        }
      ],
      "name": "ProducerRegistered",
      "type": "event"
    },
    {
      "inputs": [
        {
          "internalType": "address",
          "name": "_producerAddress",
          "type": "address"
        }
      ],
      "name": "getProducer",
      "outputs": [
        {
          "components": [
            {
              "internalType": "string",
              "name": "name",
              "type": "string"
            },
            {
              "internalType": "string",
              "name": "location",
              "type": "string"
            },
            {
              "internalType": "string",
              "name": "h3Index",
              "type": "string"
            }
          ],
          "internalType": "struct ProducerRegistry.Producer",
          "name": "",
          "type": "tuple"
        }
      ],
      "stateMutability": "view",
      "type": "function"
    },
    {
      "inputs": [
        {
          "internalType": "address",
          "name": "",
          "type": "address"
        }
      ],
      "name": "producers",
      "outputs": [
        {
          "internalType": "string",
          "name": "name",
          "type": "string"
        },
        {
          "internalType": "string",
          "name": "location",
          "type": "string"
        },
        {
          "internalType": "string",
          "name": "h3Index",
          "type": "string"
        }
      ],
      "stateMutability": "view",
      "type": "function"
    },
    {
      "inputs": [
        {
          "internalType": "string",
          "name": "_name",
          "type": "string"
        },
        {
          "internalType": "string",
          "name": "_location",
          "type": "string"
        },
        {
          "internalType": "string",
          "name": "_h3Index",
          "type": "string"
        }
      ],
      "name": "registerProducer",
      "outputs": [],
      "stateMutability": "nonpayable",
      "type": "function"
    }
  ],
  "bytecode": "0x6080604052348015600f57600080fd5b50610ef98061001f6000396000f3fe608060405234801561001057600080fd5b50600436106100415760003560e01c806326324eff146100465780634df2132714610078578063aab147b214610094575b600080fd5b610060600480360381019061005b91906106e8565b6100c4565b60405161006f939291906107a5565b60405180910390f35b610092600480360381019061008d9190610926565b610286565b005b6100ae60048036038101906100a991906106e8565b610447565b6040516100bb9190610a75565b60405180910390f35b60006020528060005260406000206000915090508060000180546100e790610ac6565b80601f016020809104026020016040519081016040528092919081815260200182805461011390610ac6565b80156101605780601f1061013557610100808354040283529160200191610160565b820191906000526020600020905b81548152906001019060200180831161014357829003601f168201915b50505050509080600101805461017590610ac6565b80601f01602080910402602001604051908101604052809291908181526020018280546101a190610ac6565b80156101ee5780601f106101c3576101008083540402835291602001916101ee565b820191906000526020600020905b8154815290600101906020018083116101d157829003601f168201915b50505050509080600201805461020390610ac6565b80601f016020809104026020016040519081016040528092919081815260200182805461022f90610ac6565b801561027c5780601f106102515761010080835404028352916020019161027c565b820191906000526020600020905b81548152906001019060200180831161025f57829003601f168201915b5050505050905083565b60008351116102ca576040517f08c379a00000000000000000000000000000000000000000000000000000000081526004016102c190610b43565b60405180910390fd5b600082511161030e576040517f08c379a000000000000000000000000000000000000000000000000000000000815260040161030590610baf565b60405180910390fd5b6000815111610352576040517f08c379a000000000000000000000000000000000000000000000000000000000815260040161034990610c1b565b60405180910390fd5b6040518060600160405280848152602001838152602001828152506000803373ffffffffffffffffffffffffffffffffffffffff1673ffffffffffffffffffffffffffffffffffffffff16815260200190815260200160002060008201518160000190816103c09190610df1565b5060208201518160010190816103d69190610df1565b5060408201518160020190816103ec9190610df1565b509050503373ffffffffffffffffffffffffffffffffffffffff167f0eff760ee44fd2241301e8a77843c5d234f55ef9dba82401933ccd7f1a2bfa8884848460405161043a939291906107a5565b60405180910390a2505050565b61044f610655565b6000808373ffffffffffffffffffffffffffffffffffffffff1673ffffffffffffffffffffffffffffffffffffffff1681526020019081526020016000206040518060600160405290816000820180546104a890610ac6565b80601f01602080910402602001604051908101604052809291908181526020018280546104d490610ac6565b80156105215780601f106104f657610100808354040283529160200191610521565b820191906000526020600020905b81548152906001019060200180831161050457829003601f168201915b5050505050815260200160018201805461053a90610ac6565b80601f016020809104026020016040519081016040528092919081815260200182805461056690610ac6565b80156105b35780601f10610588576101008083540402835291602001916105b3565b820191906000526020600020905b81548152906001019060200180831161059657829003601f168201915b505050505081526020016002820180546105cc90610ac6565b80601f01602080910402602001604051908101604052809291908181526020018280546105f890610ac6565b80156106455780601f1061061a57610100808354040283529160200191610645565b820191906000526020600020905b81548152906001019060200180831161062857829003601f168201915b5050505050815250509050919050565b60405180606001604052806060815260200160608152602001606081525090565b6000604051905090565b600080fd5b600080fd5b600073ffffffffffffffffffffffffffffffffffffffff82169050919050565b60006106b58261068a565b9050919050565b6106c5816106aa565b81146106d057600080fd5b50565b6000813590506106e2816106bc565b92915050565b6000602082840312156106fe576106fd610680565b5b600061070c848285016106d3565b91505092915050565b600081519050919050565b600082825260208201905092915050565b60005b8381101561074f578082015181840152602081019050610734565b60008484015250505050565b6000601f19601f8301169050919050565b600061077782610715565b6107818185610720565b9350610791818560208601610731565b61079a8161075b565b840191505092915050565b600060608201905081810360008301526107bf818661076c565b905081810360208301526107d3818561076c565b905081810360408301526107e7818461076c565b9050949350505050565b600080fd5b600080fd5b7f4e487b7100000000000000000000000000000000000000000000000000000000600052604160045260246000fd5b6108338261075b565b810181811067ffffffffffffffff82111715610852576108516107fb565b5b80604052505050565b6000610865610676565b9050610871828261082a565b919050565b600067ffffffffffffffff821115610891576108906107fb565b5b61089a8261075b565b9050602081019050919050565b82818337600083830152505050565b60006108c96108c484610876565b61085b565b9050828152602081018484840111156108e5576108e46107f6565b5b6108f08482856108a7565b509392505050565b600082601f83011261090d5761090c6107f1565b5b813561091d8482602086016108b6565b91505092915050565b60008060006060848603121561093f5761093e610680565b5b600084013567ffffffffffffffff81111561095d5761095c610685565b5b610969868287016108f8565b935050602084013567ffffffffffffffff81111561098a57610989610685565b5b610996868287016108f8565b925050604084013567ffffffffffffffff8111156109b7576109b6610685565b5b6109c3868287016108f8565b9150509250925092565b600082825260208201905092915050565b60006109e982610715565b6109f381856109cd565b9350610a03818560208601610731565b610a0c8161075b565b840191505092915050565b60006060830160008301518482036000860152610a3482826109de565b91505060208301518482036020860152610a4e82826109de565b91505060408301518482036040860152610a6882826109de565b9150508091505092915050565b60006020820190508181036000830152610a8f8184610a17565b905092915050565b7f4e487b7100000000000000000000000000000000000000000000000000000000600052602260045260246000fd5b60006002820490506001821680610ade57607f821691505b602082108103610af157610af0610a97565b5b50919050565b7f4e616d652063616e6e6f7420626520656d707479000000000000000000000000600082015250565b6000610b2d601483610720565b9150610b3882610af7565b602082019050919050565b60006020820190508181036000830152610b5c81610b20565b9050919050565b7f4c6f636174696f6e2063616e6e6f7420626520656d7074790000000000000000600082015250565b6000610b99601883610720565b9150610ba482610b63565b602082019050919050565b60006020820190508181036000830152610bc881610b8c565b9050919050565b7f483320696e6465782063616e6e6f7420626520656d7074790000000000000000600082015250565b6000610c05601883610720565b9150610c1082610bcf565b602082019050919050565b60006020820190508181036000830152610c3481610bf8565b9050919050565b60008190508160005260206000209050919050565b60006020601f8301049050919050565b600082821b905092915050565b600060088302610c9d7fffffffffffffffffffffffffffffffffffffffffffffffffffffffffffffffff82610c60565b610ca78683610c60565b95508019841693508086168417925050509392505050565b6000819050919050565b6000819050919050565b6000610cee610ce9610ce484610cbf565b610cc9565b610cbf565b9050919050565b6000819050919050565b610d0883610cd3565b610d1c610d1482610cf5565b848454610c6d565b825550505050565b600090565b610d31610d24565b610d3c818484610cff565b505050565b5b81811015610d6057610d55600082610d29565b600181019050610d42565b5050565b601f821115610da557610d7681610c3b565b610d7f84610c50565b81016020851015610d8e578190505b610da2610d9a85610c50565b830182610d41565b50505b505050565b600082821c905092915050565b6000610dc860001984600802610daa565b1980831691505092915050565b6000610de18383610db7565b9150826002028217905092915050565b610dfa82610715565b67ffffffffffffffff811115610e1357610e126107fb565b5b610e1d8254610ac6565b610e28828285610d64565b600060209050601f831160018114610e5b5760008415610e49578287015190505b610e538582610dd5565b865550610ebb565b601f198416610e6986610c3b565b60005b82811015610e9157848901518255600182019150602085019450602081019050610e6c565b86831015610eae5784890151610eaa601f891682610db7565b8355505b6001600288020188555050505b50505050505056fea26469706673582212207fafdaf47ff798e802a56409d8279b925e39bad90e59ddf41e5b9655de517bdf64736f6c634300081a0033",
  "linkReferences": {},
  "deployedLinkReferences": {}
}