{
  "_format": "hh-sol-artifact-1",
  "contractName": "CommodityExchange",
  "sourceName": "contracts/CommodityExchange.sol",
  "abi": [
    {
      "inputs": [
        {
          "internalType": "address",
          "name": "_tokenAuthority",
          "type": "address"
        }
      ],
      "stateMutability": "nonpayable",
      "type": "constructor"
    },
    {
      "anonymous": false,
      "inputs": [
        {
          "indexed": true,
          "internalType": "string",
          "name": "commodityType",
          "type": "string"
        }
      ],
      "name": "CommodityApproved",
      "type": "event"
    },
    {
      "anonymous": false,
      "inputs": [
        {
          "indexed": true,
          "internalType": "uint256",
          "name": "commodityId",
          "type": "uint256"
        },
        {
          "indexed": true,
          "internalType": "string",
          "name": "commodityType",
          "type": "string"
        },
        {
          "indexed": true,
          "internalType": "address",
          "name": "producer",
          "type": "address"
        },
        {
          "indexed": false,
          "internalType": "int64",
          "name": "quantity",
          "type": "int64"
        },
        {
          "indexed": false,
          "internalType": "uint256",
          "name": "price",
          "type": "uint256"
        },
        {
          "indexed": false,
          "internalType": "uint256",
          "name": "deliveryWindow",
          "type": "uint256"
        }
      ],
      "name": "CommodityListed",
      "type": "event"
    },
    {
      "anonymous": false,
      "inputs": [
        {
          "indexed": true,
          "internalType": "string",
          "name": "commodityType",
          "type": "string"
        }
      ],
      "name": "CommodityRemoved",
      "type": "event"
    },
    {
      "inputs": [],
      "name": "admin",
      "outputs": [
        {
          "internalType": "address",
          "name": "",
          "type": "address"
        }
      ],
      "stateMutability": "view",
      "type": "function"
    },
    {
      "inputs": [
        {
          "internalType": "string",
          "name": "commodityType",
          "type": "string"
        }
      ],
      "name": "approveCommodity",
      "outputs": [],
      "stateMutability": "nonpayable",
      "type": "function"
    },
    {
      "inputs": [
        {
          "internalType": "string",
          "name": "",
          "type": "string"
        }
      ],
      "name": "approvedCommodities",
      "outputs": [
        {
          "internalType": "bool",
          "name": "",
          "type": "bool"
        }
      ],
      "stateMutability": "view",
      "type": "function"
    },
    {
      "inputs": [
        {
          "internalType": "uint256",
          "name": "",
          "type": "uint256"
        }
      ],
      "name": "commodities",
      "outputs": [
        {
          "internalType": "string",
          "name": "commodityType",
          "type": "string"
        },
        {
          "internalType": "address",
          "name": "producer",
          "type": "address"
        },
        {
          "internalType": "int64",
          "name": "quantity",
          "type": "int64"
        },
        {
          "internalType": "uint256",
          "name": "price",
          "type": "uint256"
        },
        {
          "internalType": "uint256",
          "name": "deliveryWindow",
          "type": "uint256"
        },
        {
          "internalType": "bool",
          "name": "isActive",
          "type": "bool"
        }
      ],
      "stateMutability": "view",
      "type": "function"
    },
    {
      "inputs": [],
      "name": "commodityCount",
      "outputs": [
        {
          "internalType": "uint256",
          "name": "",
          "type": "uint256"
        }
      ],
      "stateMutability": "view",
      "type": "function"
    },
    {
      "inputs": [
        {
          "internalType": "uint256",
          "name": "commodityId",
          "type": "uint256"
        }
      ],
      "name": "getCommodity",
      "outputs": [
        {
          "components": [
            {
              "internalType": "string",
              "name": "commodityType",
              "type": "string"
            },
            {
              "internalType": "address",
              "name": "producer",
              "type": "address"
            },
            {
              "internalType": "int64",
              "name": "quantity",
              "type": "int64"
            },
            {
              "internalType": "uint256",
              "name": "price",
              "type": "uint256"
            },
            {
              "internalType": "uint256",
              "name": "deliveryWindow",
              "type": "uint256"
            },
            {
              "internalType": "bool",
              "name": "isActive",
              "type": "bool"
            }
          ],
          "internalType": "struct CommodityExchange.Commodity",
          "name": "",
          "type": "tuple"
        }
      ],
      "stateMutability": "view",
      "type": "function"
    },
    {
      "inputs": [],
      "name": "getListedCommodities",
      "outputs": [
        {
          "components": [
            {
              "internalType": "string",
              "name": "commodityType",
              "type": "string"
            },
            {
              "internalType": "address",
              "name": "producer",
              "type": "address"
            },
            {
              "internalType": "int64",
              "name": "quantity",
              "type": "int64"
            },
            {
              "internalType": "uint256",
              "name": "price",
              "type": "uint256"
            },
            {
              "internalType": "uint256",
              "name": "deliveryWindow",
              "type": "uint256"
            },
            {
              "internalType": "bool",
              "name": "isActive",
              "type": "bool"
            }
          ],
          "internalType": "struct CommodityExchange.Commodity[]",
          "name": "",
          "type": "tuple[]"
        }
      ],
      "stateMutability": "view",
      "type": "function"
    },
    {
      "inputs": [
        {
          "internalType": "string",
          "name": "commodityType",
          "type": "string"
        },
        {
          "internalType": "int64",
          "name": "quantity",
          "type": "int64"
        },
        {
          "internalType": "uint256",
          "name": "price",
          "type": "uint256"
        },
        {
          "internalType": "uint256",
          "name": "deliveryWindow",
          "type": "uint256"
        }
      ],
      "name": "listCommodity",
      "outputs": [],
      "stateMutability": "nonpayable",
      "type": "function"
    },
    {
      "inputs": [
        {
          "internalType": "string",
          "name": "commodityType",
          "type": "string"
        }
      ],
      "name": "removeCommodity",
      "outputs": [],
      "stateMutability": "nonpayable",
      "type": "function"
    },
    {
      "inputs": [],
      "name": "tokenAuthority",
      "outputs": [
        {
          "internalType": "contract TokenAuthority",
          "name": "",
          "type": "address"
        }
      ],
      "stateMutability": "view",
      "type": "function"
    }
  ],
  "bytecode": "0x608060405234801561001057600080fd5b50604051611e8e380380611e8e8339818101604052810190610032919061011c565b80600160006101000a81548173ffffffffffffffffffffffffffffffffffffffff021916908373ffffffffffffffffffffffffffffffffffffffff160217905550336000806101000a81548173ffffffffffffffffffffffffffffffffffffffff021916908373ffffffffffffffffffffffffffffffffffffffff16021790555050610149565b600080fd5b600073ffffffffffffffffffffffffffffffffffffffff82169050919050565b60006100e9826100be565b9050919050565b6100f9816100de565b811461010457600080fd5b50565b600081519050610116816100f0565b92915050565b600060208284031215610132576101316100b9565b5b600061014084828501610107565b91505092915050565b611d36806101586000396000f3fe608060405234801561001057600080fd5b506004361061009e5760003560e01c80638c1f0c6f116100665780638c1f0c6f14610159578063d77caa1b14610177578063efea6dbf14610193578063f851a440146101b1578063fcfd84e2146101cf5761009e565b80630459d0d9146100a35780632f63f34f146100bf57806337998b55146100ef578063741997581461010d57806381ad90c21461013d575b600080fd5b6100bd60048036038101906100b89190610f1f565b610204565b005b6100d960048036038101906100d49190610fa2565b6105da565b6040516100e69190611151565b60405180910390f35b6100f761077f565b60405161010491906111d2565b60405180910390f35b610127600480360381019061012291906111ed565b6107a5565b6040516101349190611245565b60405180910390f35b610157600480360381019061015291906111ed565b6107db565b005b6101616108e5565b60405161016e91906113ab565b60405180910390f35b610191600480360381019061018c91906111ed565b610ad3565b005b61019b610bdd565b6040516101a891906113dc565b60405180910390f35b6101b9610be3565b6040516101c69190611406565b60405180910390f35b6101e960048036038101906101e49190610fa2565b610c07565b6040516101fb9695949392919061147a565b60405180910390f35b60008360070b1361024a576040517f08c379a000000000000000000000000000000000000000000000000000000000815260040161024190611554565b60405180910390fd5b6000821161028d576040517f08c379a0000000000000000000000000000000000000000000000000000000008152600401610284906115c0565b60405180910390fd5b4281116102cf576040517f08c379a00000000000000000000000000000000000000000000000000000000081526004016102c690611652565b60405180910390fd5b6004846040516102df91906116ae565b908152602001604051809103902060009054906101000a900460ff1661033a576040517f08c379a000000000000000000000000000000000000000000000000000000000815260040161033190611737565b60405180910390fd5b6000600160009054906101000a900473ffffffffffffffffffffffffffffffffffffffff1673ffffffffffffffffffffffffffffffffffffffff1663795a61ec868685336040518563ffffffff1660e01b815260040161039d9493929190611757565b6020604051808303816000875af11580156103bc573d6000803e3d6000fd5b505050506040513d601f19601f820116820180604052508101906103e091906117b8565b905060008160070b14610428576040517f08c379a000000000000000000000000000000000000000000000000000000000815260040161041f90611831565b60405180910390fd5b600060035490506003600081548092919061044290611880565b91905055506040518060c001604052808781526020013373ffffffffffffffffffffffffffffffffffffffff1681526020018660070b8152602001858152602001848152602001600115158152506002600083815260200190815260200160002060008201518160000190816104b89190611aca565b5060208201518160010160006101000a81548173ffffffffffffffffffffffffffffffffffffffff021916908373ffffffffffffffffffffffffffffffffffffffff16021790555060408201518160010160146101000a81548167ffffffffffffffff021916908360070b67ffffffffffffffff160217905550606082015181600201556080820151816003015560a08201518160040160006101000a81548160ff0219169083151502179055509050503373ffffffffffffffffffffffffffffffffffffffff168660405161058e91906116ae565b6040518091039020827f782fd6c1ed0d972774b09df9ee71377f5a342b041ed73c53fa64b63a36ef0d1c8888886040516105ca93929190611b9c565b60405180910390a4505050505050565b6105e2610d05565b6003548210610626576040517f08c379a000000000000000000000000000000000000000000000000000000000815260040161061d90611c1f565b60405180910390fd5b600260008381526020019081526020016000206040518060c0016040529081600082018054610654906118f7565b80601f0160208091040260200160405190810160405280929190818152602001828054610680906118f7565b80156106cd5780601f106106a2576101008083540402835291602001916106cd565b820191906000526020600020905b8154815290600101906020018083116106b057829003601f168201915b505050505081526020016001820160009054906101000a900473ffffffffffffffffffffffffffffffffffffffff1673ffffffffffffffffffffffffffffffffffffffff1673ffffffffffffffffffffffffffffffffffffffff1681526020016001820160149054906101000a900460070b60070b60070b815260200160028201548152602001600382015481526020016004820160009054906101000a900460ff1615151515815250509050919050565b600160009054906101000a900473ffffffffffffffffffffffffffffffffffffffff1681565b6004818051602081018201805184825260208301602085012081835280955050505050506000915054906101000a900460ff1681565b60008054906101000a900473ffffffffffffffffffffffffffffffffffffffff1673ffffffffffffffffffffffffffffffffffffffff163373ffffffffffffffffffffffffffffffffffffffff1614610869576040517f08c379a000000000000000000000000000000000000000000000000000000000815260040161086090611cb1565b60405180910390fd5b600160048260405161087b91906116ae565b908152602001604051809103902060006101000a81548160ff021916908315150217905550806040516108ae91906116ae565b60405180910390207f80a6ec9cd77626e3b857f8cc604678ad6bfd7ed829f76055c37224fbaf8e7b7c60405160405180910390a250565b6060600060035467ffffffffffffffff81111561090557610904610d85565b5b60405190808252806020026020018201604052801561093e57816020015b61092b610d05565b8152602001906001900390816109235790505b50905060005b600354811015610acb57600260008281526020019081526020016000206040518060c001604052908160008201805461097c906118f7565b80601f01602080910402602001604051908101604052809291908181526020018280546109a8906118f7565b80156109f55780601f106109ca576101008083540402835291602001916109f5565b820191906000526020600020905b8154815290600101906020018083116109d857829003601f168201915b505050505081526020016001820160009054906101000a900473ffffffffffffffffffffffffffffffffffffffff1673ffffffffffffffffffffffffffffffffffffffff1673ffffffffffffffffffffffffffffffffffffffff1681526020016001820160149054906101000a900460070b60070b60070b815260200160028201548152602001600382015481526020016004820160009054906101000a900460ff161515151581525050828281518110610ab357610ab2611cd1565b5b60200260200101819052508080600101915050610944565b508091505090565b60008054906101000a900473ffffffffffffffffffffffffffffffffffffffff1673ffffffffffffffffffffffffffffffffffffffff163373ffffffffffffffffffffffffffffffffffffffff1614610b61576040517f08c379a0000000000000000000000000000000000000000000000000000000008152600401610b5890611cb1565b60405180910390fd5b6000600482604051610b7391906116ae565b908152602001604051809103902060006101000a81548160ff02191690831515021790555080604051610ba691906116ae565b60405180910390207ff8257a3983f9c5b1289cc8c8f98e5514a5bd1483d0300ddafd49389511323fd960405160405180910390a250565b60035481565b60008054906101000a900473ffffffffffffffffffffffffffffffffffffffff1681565b6002602052806000526040600020600091509050806000018054610c2a906118f7565b80601f0160208091040260200160405190810160405280929190818152602001828054610c56906118f7565b8015610ca35780601f10610c7857610100808354040283529160200191610ca3565b820191906000526020600020905b815481529060010190602001808311610c8657829003601f168201915b5050505050908060010160009054906101000a900473ffffffffffffffffffffffffffffffffffffffff16908060010160149054906101000a900460070b908060020154908060030154908060040160009054906101000a900460ff16905086565b6040518060c0016040528060608152602001600073ffffffffffffffffffffffffffffffffffffffff168152602001600060070b815260200160008152602001600081526020016000151581525090565b6000604051905090565b600080fd5b600080fd5b600080fd5b600080fd5b6000601f19601f8301169050919050565b7f4e487b7100000000000000000000000000000000000000000000000000000000600052604160045260246000fd5b610dbd82610d74565b810181811067ffffffffffffffff82111715610ddc57610ddb610d85565b5b80604052505050565b6000610def610d56565b9050610dfb8282610db4565b919050565b600067ffffffffffffffff821115610e1b57610e1a610d85565b5b610e2482610d74565b9050602081019050919050565b82818337600083830152505050565b6000610e53610e4e84610e00565b610de5565b905082815260208101848484011115610e6f57610e6e610d6f565b5b610e7a848285610e31565b509392505050565b600082601f830112610e9757610e96610d6a565b5b8135610ea7848260208601610e40565b91505092915050565b60008160070b9050919050565b610ec681610eb0565b8114610ed157600080fd5b50565b600081359050610ee381610ebd565b92915050565b6000819050919050565b610efc81610ee9565b8114610f0757600080fd5b50565b600081359050610f1981610ef3565b92915050565b60008060008060808587031215610f3957610f38610d60565b5b600085013567ffffffffffffffff811115610f5757610f56610d65565b5b610f6387828801610e82565b9450506020610f7487828801610ed4565b9350506040610f8587828801610f0a565b9250506060610f9687828801610f0a565b91505092959194509250565b600060208284031215610fb857610fb7610d60565b5b6000610fc684828501610f0a565b91505092915050565b600081519050919050565b600082825260208201905092915050565b60005b83811015611009578082015181840152602081019050610fee565b60008484015250505050565b600061102082610fcf565b61102a8185610fda565b935061103a818560208601610feb565b61104381610d74565b840191505092915050565b600073ffffffffffffffffffffffffffffffffffffffff82169050919050565b60006110798261104e565b9050919050565b6110898161106e565b82525050565b61109881610eb0565b82525050565b6110a781610ee9565b82525050565b60008115159050919050565b6110c2816110ad565b82525050565b600060c08301600083015184820360008601526110e58282611015565b91505060208301516110fa6020860182611080565b50604083015161110d604086018261108f565b506060830151611120606086018261109e565b506080830151611133608086018261109e565b5060a083015161114660a08601826110b9565b508091505092915050565b6000602082019050818103600083015261116b81846110c8565b905092915050565b6000819050919050565b600061119861119361118e8461104e565b611173565b61104e565b9050919050565b60006111aa8261117d565b9050919050565b60006111bc8261119f565b9050919050565b6111cc816111b1565b82525050565b60006020820190506111e760008301846111c3565b92915050565b60006020828403121561120357611202610d60565b5b600082013567ffffffffffffffff81111561122157611220610d65565b5b61122d84828501610e82565b91505092915050565b61123f816110ad565b82525050565b600060208201905061125a6000830184611236565b92915050565b600081519050919050565b600082825260208201905092915050565b6000819050602082019050919050565b600060c08301600083015184820360008601526112a98282611015565b91505060208301516112be6020860182611080565b5060408301516112d1604086018261108f565b5060608301516112e4606086018261109e565b5060808301516112f7608086018261109e565b5060a083015161130a60a08601826110b9565b508091505092915050565b6000611321838361128c565b905092915050565b6000602082019050919050565b600061134182611260565b61134b818561126b565b93508360208202850161135d8561127c565b8060005b85811015611399578484038952815161137a8582611315565b945061138583611329565b925060208a01995050600181019050611361565b50829750879550505050505092915050565b600060208201905081810360008301526113c58184611336565b905092915050565b6113d681610ee9565b82525050565b60006020820190506113f160008301846113cd565b92915050565b6114008161106e565b82525050565b600060208201905061141b60008301846113f7565b92915050565b600082825260208201905092915050565b600061143d82610fcf565b6114478185611421565b9350611457818560208601610feb565b61146081610d74565b840191505092915050565b61147481610eb0565b82525050565b600060c08201905081810360008301526114948189611432565b90506114a360208301886113f7565b6114b0604083018761146b565b6114bd60608301866113cd565b6114ca60808301856113cd565b6114d760a0830184611236565b979650505050505050565b7f5175616e74697479206d7573742062652067726561746572207468616e207a6560008201527f726f000000000000000000000000000000000000000000000000000000000000602082015250565b600061153e602283611421565b9150611549826114e2565b604082019050919050565b6000602082019050818103600083015261156d81611531565b9050919050565b7f5072696365206d7573742062652067726561746572207468616e207a65726f00600082015250565b60006115aa601f83611421565b91506115b582611574565b602082019050919050565b600060208201905081810360008301526115d98161159d565b9050919050565b7f44656c69766572792077696e646f77206d75737420626520696e20746865206660008201527f7574757265000000000000000000000000000000000000000000000000000000602082015250565b600061163c602583611421565b9150611647826115e0565b604082019050919050565b6000602082019050818103600083015261166b8161162f565b9050919050565b600081905092915050565b600061168882610fcf565b6116928185611672565b93506116a2818560208601610feb565b80840191505092915050565b60006116ba828461167d565b915081905092915050565b7f436f6d6d6f646974792074797065206e6f7420617070726f76656420666f722060008201527f6c697374696e6700000000000000000000000000000000000000000000000000602082015250565b6000611721602783611421565b915061172c826116c5565b604082019050919050565b6000602082019050818103600083015261175081611714565b9050919050565b600060808201905081810360008301526117718187611432565b9050611780602083018661146b565b61178d60408301856113cd565b61179a60608301846113f7565b95945050505050565b6000815190506117b281610ebd565b92915050565b6000602082840312156117ce576117cd610d60565b5b60006117dc848285016117a3565b91505092915050565b7f546f6b656e206d696e74696e67206661696c6564000000000000000000000000600082015250565b600061181b601483611421565b9150611826826117e5565b602082019050919050565b6000602082019050818103600083015261184a8161180e565b9050919050565b7f4e487b7100000000000000000000000000000000000000000000000000000000600052601160045260246000fd5b600061188b82610ee9565b91507fffffffffffffffffffffffffffffffffffffffffffffffffffffffffffffffff82036118bd576118bc611851565b5b600182019050919050565b7f4e487b7100000000000000000000000000000000000000000000000000000000600052602260045260246000fd5b6000600282049050600182168061190f57607f821691505b602082108103611922576119216118c8565b5b50919050565b60008190508160005260206000209050919050565b60006020601f8301049050919050565b600082821b905092915050565b60006008830261198a7fffffffffffffffffffffffffffffffffffffffffffffffffffffffffffffffff8261194d565b611994868361194d565b95508019841693508086168417925050509392505050565b60006119c76119c26119bd84610ee9565b611173565b610ee9565b9050919050565b6000819050919050565b6119e1836119ac565b6119f56119ed826119ce565b84845461195a565b825550505050565b600090565b611a0a6119fd565b611a158184846119d8565b505050565b5b81811015611a3957611a2e600082611a02565b600181019050611a1b565b5050565b601f821115611a7e57611a4f81611928565b611a588461193d565b81016020851015611a67578190505b611a7b611a738561193d565b830182611a1a565b50505b505050565b600082821c905092915050565b6000611aa160001984600802611a83565b1980831691505092915050565b6000611aba8383611a90565b9150826002028217905092915050565b611ad382610fcf565b67ffffffffffffffff811115611aec57611aeb610d85565b5b611af682546118f7565b611b01828285611a3d565b600060209050601f831160018114611b345760008415611b22578287015190505b611b2c8582611aae565b865550611b94565b601f198416611b4286611928565b60005b82811015611b6a57848901518255600182019150602085019450602081019050611b45565b86831015611b875784890151611b83601f891682611a90565b8355505b6001600288020188555050505b505050505050565b6000606082019050611bb1600083018661146b565b611bbe60208301856113cd565b611bcb60408301846113cd565b949350505050565b7f436f6d6d6f6469747920646f6573206e6f742065786973740000000000000000600082015250565b6000611c09601883611421565b9150611c1482611bd3565b602082019050919050565b60006020820190508181036000830152611c3881611bfc565b9050919050565b7f4f6e6c792061646d696e2063616e20706572666f726d2074686973206163746960008201527f6f6e000000000000000000000000000000000000000000000000000000000000602082015250565b6000611c9b602283611421565b9150611ca682611c3f565b604082019050919050565b60006020820190508181036000830152611cca81611c8e565b9050919050565b7f4e487b7100000000000000000000000000000000000000000000000000000000600052603260045260246000fdfea2646970667358221220dd1dd561f4d76944082e3e2c987cdc2c88b3c9c032c0c5801dac2592d25ab20464736f6c634300081a0033",
  "linkReferences": {},
  "deployedLinkReferences": {}
}